{
  "_format": "hh-sol-artifact-1",
  "contractName": "DeleGateWalletFactory",
  "sourceName": "contracts/DeleGateWalletFactory.sol",
  "abi": [
    {
      "inputs": [
        {
          "internalType": "address",
          "name": "_implementation",
          "type": "address"
        }
      ],
      "stateMutability": "nonpayable",
      "type": "constructor"
    },
    {
      "inputs": [
        {
          "internalType": "address",
          "name": "_owner",
          "type": "address"
        },
        {
          "internalType": "address",
          "name": "_signProtocolAddress",
          "type": "address"
        },
        {
          "internalType": "uint64",
          "name": "_schemaId",
          "type": "uint64"
        },
        {
          "internalType": "bytes32",
          "name": "salt",
          "type": "bytes32"
        }
      ],
      "name": "createDelegateWallet",
      "outputs": [
        {
          "internalType": "address",
          "name": "",
          "type": "address"
        }
      ],
      "stateMutability": "nonpayable",
      "type": "function"
    },
    {
      "inputs": [],
      "name": "implementation",
      "outputs": [
        {
          "internalType": "address",
          "name": "",
          "type": "address"
        }
      ],
      "stateMutability": "view",
      "type": "function"
    },
    {
      "inputs": [
        {
          "internalType": "address",
          "name": "sender",
          "type": "address"
        },
        {
          "internalType": "bytes32",
          "name": "salt",
          "type": "bytes32"
        }
      ],
      "name": "predictDeterministicAddress",
      "outputs": [
        {
          "internalType": "address",
          "name": "",
          "type": "address"
        }
      ],
      "stateMutability": "view",
      "type": "function"
    }
  ],
  "bytecode": "0x608060405234801561001057600080fd5b506040516107a23803806107a2833981810160405281019061003291906100db565b806000806101000a81548173ffffffffffffffffffffffffffffffffffffffff021916908373ffffffffffffffffffffffffffffffffffffffff16021790555050610108565b600080fd5b600073ffffffffffffffffffffffffffffffffffffffff82169050919050565b60006100a88261007d565b9050919050565b6100b88161009d565b81146100c357600080fd5b50565b6000815190506100d5816100af565b92915050565b6000602082840312156100f1576100f0610078565b5b60006100ff848285016100c6565b91505092915050565b61068b806101176000396000f3fe608060405234801561001057600080fd5b50600436106100415760003560e01c8063360d0fad146100465780635c60da1b146100765780639497f4e914610094575b600080fd5b610060600480360381019061005b91906103ec565b6100c4565b60405161006d919061043b565b60405180910390f35b61007e610125565b60405161008b919061043b565b60405180910390f35b6100ae60048036038101906100a99190610496565b610149565b6040516100bb919061043b565b60405180910390f35b60008083836040516020016100da929190610566565b60405160208183030381529060405280519060200120905061011c60008054906101000a900473ffffffffffffffffffffffffffffffffffffffff1682610221565b91505092915050565b60008054906101000a900473ffffffffffffffffffffffffffffffffffffffff1681565b600080338360405160200161015f929190610566565b60405160208183030381529060405280519060200120905060006101a360008054906101000a900473ffffffffffffffffffffffffffffffffffffffff1683610236565b90508073ffffffffffffffffffffffffffffffffffffffff16637879ec318888886040518463ffffffff1660e01b81526004016101e2939291906105a1565b600060405180830381600087803b1580156101fc57600080fd5b505af1158015610210573d6000803e3d6000fd5b505050508092505050949350505050565b600061022e8383306102f2565b905092915050565b6000763d602d80600a3d3981f3363d3d373d3d3d363d730000008360601b60e81c176000526e5af43d82803e903d91602b57fd5bf38360781b1760205281603760096000f59050600073ffffffffffffffffffffffffffffffffffffffff168173ffffffffffffffffffffffffffffffffffffffff16036102ec576040517f08c379a00000000000000000000000000000000000000000000000000000000081526004016102e390610635565b60405180910390fd5b92915050565b60006040518260388201526f5af43d82803e903d91602b57fd5bf3ff6024820152846014820152733d602d80600a3d3981f3363d3d373d3d3d363d7381528360588201526037600c8201206078820152605560438201209150509392505050565b600080fd5b600073ffffffffffffffffffffffffffffffffffffffff82169050919050565b600061038382610358565b9050919050565b61039381610378565b811461039e57600080fd5b50565b6000813590506103b08161038a565b92915050565b6000819050919050565b6103c9816103b6565b81146103d457600080fd5b50565b6000813590506103e6816103c0565b92915050565b6000806040838503121561040357610402610353565b5b6000610411858286016103a1565b9250506020610422858286016103d7565b9150509250929050565b61043581610378565b82525050565b6000602082019050610450600083018461042c565b92915050565b600067ffffffffffffffff82169050919050565b61047381610456565b811461047e57600080fd5b50565b6000813590506104908161046a565b92915050565b600080600080608085870312156104b0576104af610353565b5b60006104be878288016103a1565b94505060206104cf878288016103a1565b93505060406104e087828801610481565b92505060606104f1878288016103d7565b91505092959194509250565b60008160601b9050919050565b6000610515826104fd565b9050919050565b60006105278261050a565b9050919050565b61053f61053a82610378565b61051c565b82525050565b6000819050919050565b61056061055b826103b6565b610545565b82525050565b6000610572828561052e565b601482019150610582828461054f565b6020820191508190509392505050565b61059b81610456565b82525050565b60006060820190506105b6600083018661042c565b6105c3602083018561042c565b6105d06040830184610592565b949350505050565b600082825260208201905092915050565b7f455243313136373a2063726561746532206661696c6564000000000000000000600082015250565b600061061f6017836105d8565b915061062a826105e9565b602082019050919050565b6000602082019050818103600083015261064e81610612565b905091905056fea264697066735822122012befc601e093610d43d3d1f1bb786f9a1c210ad18b80f081b6af172c297fcb064736f6c63430008130033",
  "linkReferences": {},
  "deployedLinkReferences": {}
}