{
  "_format": "hh-sol-artifact-1",
  "contractName": "DeleGateWalletFactory",
  "sourceName": "contracts/DeleGateWalletFactory.sol",
  "abi": [
    {
      "inputs": [
        {
          "internalType": "address",
          "name": "_implementation",
          "type": "address"
        }
      ],
      "stateMutability": "nonpayable",
      "type": "constructor"
    },
    {
      "inputs": [
        {
          "internalType": "address",
          "name": "_owner",
          "type": "address"
        },
        {
          "internalType": "address",
          "name": "_signProtocolAddress",
          "type": "address"
        },
        {
          "internalType": "uint64",
          "name": "_schemaId",
          "type": "uint64"
        },
        {
          "internalType": "bytes32",
          "name": "salt",
          "type": "bytes32"
        }
      ],
      "name": "createDelegateWallet",
      "outputs": [
        {
          "internalType": "address",
          "name": "",
          "type": "address"
        }
      ],
      "stateMutability": "nonpayable",
      "type": "function"
    },
    {
      "inputs": [],
      "name": "implementation",
      "outputs": [
        {
          "internalType": "address",
          "name": "",
          "type": "address"
        }
      ],
      "stateMutability": "view",
      "type": "function"
    },
    {
      "inputs": [
        {
          "internalType": "bytes32",
          "name": "salt",
          "type": "bytes32"
        }
      ],
      "name": "predictDeterministicAddress",
      "outputs": [
        {
          "internalType": "address",
          "name": "",
          "type": "address"
        }
      ],
      "stateMutability": "view",
      "type": "function"
    }
  ],
  "bytecode": "0x608060405234801561001057600080fd5b5060405161069e38038061069e833981810160405281019061003291906100db565b806000806101000a81548173ffffffffffffffffffffffffffffffffffffffff021916908373ffffffffffffffffffffffffffffffffffffffff16021790555050610108565b600080fd5b600073ffffffffffffffffffffffffffffffffffffffff82169050919050565b60006100a88261007d565b9050919050565b6100b88161009d565b81146100c357600080fd5b50565b6000815190506100d5816100af565b92915050565b6000602082840312156100f1576100f0610078565b5b60006100ff848285016100c6565b91505092915050565b610587806101176000396000f3fe608060405234801561001057600080fd5b50600436106100415760003560e01c80635414dff0146100465780635c60da1b146100765780639497f4e914610094575b600080fd5b610060600480360381019061005b9190610332565b6100c4565b60405161006d91906103a0565b60405180910390f35b61007e6100f7565b60405161008b91906103a0565b60405180910390f35b6100ae60048036038101906100a99190610427565b61011b565b6040516100bb91906103a0565b60405180910390f35b60006100f060008054906101000a900473ffffffffffffffffffffffffffffffffffffffff16836101c5565b9050919050565b60008054906101000a900473ffffffffffffffffffffffffffffffffffffffff1681565b60008061014860008054906101000a900473ffffffffffffffffffffffffffffffffffffffff16846101da565b90508073ffffffffffffffffffffffffffffffffffffffff16637879ec318787876040518463ffffffff1660e01b81526004016101879392919061049d565b600060405180830381600087803b1580156101a157600080fd5b505af11580156101b5573d6000803e3d6000fd5b5050505080915050949350505050565b60006101d2838330610296565b905092915050565b6000763d602d80600a3d3981f3363d3d373d3d3d363d730000008360601b60e81c176000526e5af43d82803e903d91602b57fd5bf38360781b1760205281603760096000f59050600073ffffffffffffffffffffffffffffffffffffffff168173ffffffffffffffffffffffffffffffffffffffff1603610290576040517f08c379a000000000000000000000000000000000000000000000000000000000815260040161028790610531565b60405180910390fd5b92915050565b60006040518260388201526f5af43d82803e903d91602b57fd5bf3ff6024820152846014820152733d602d80600a3d3981f3363d3d373d3d3d363d7381528360588201526037600c8201206078820152605560438201209150509392505050565b600080fd5b6000819050919050565b61030f816102fc565b811461031a57600080fd5b50565b60008135905061032c81610306565b92915050565b600060208284031215610348576103476102f7565b5b60006103568482850161031d565b91505092915050565b600073ffffffffffffffffffffffffffffffffffffffff82169050919050565b600061038a8261035f565b9050919050565b61039a8161037f565b82525050565b60006020820190506103b56000830184610391565b92915050565b6103c48161037f565b81146103cf57600080fd5b50565b6000813590506103e1816103bb565b92915050565b600067ffffffffffffffff82169050919050565b610404816103e7565b811461040f57600080fd5b50565b600081359050610421816103fb565b92915050565b60008060008060808587031215610441576104406102f7565b5b600061044f878288016103d2565b9450506020610460878288016103d2565b935050604061047187828801610412565b92505060606104828782880161031d565b91505092959194509250565b610497816103e7565b82525050565b60006060820190506104b26000830186610391565b6104bf6020830185610391565b6104cc604083018461048e565b949350505050565b600082825260208201905092915050565b7f455243313136373a2063726561746532206661696c6564000000000000000000600082015250565b600061051b6017836104d4565b9150610526826104e5565b602082019050919050565b6000602082019050818103600083015261054a8161050e565b905091905056fea26469706673582212207a8acf207fff5be8cee0a885bc76d03cff5a307b82f4a9034e6baaf4dabf4baf64736f6c63430008130033",
  "linkReferences": {},
  "deployedLinkReferences": {}
}