{
  "_format": "hh-sol-artifact-1",
  "contractName": "DeleGateWallet",
  "sourceName": "contracts/DeleGateWallet.sol",
  "abi": [
    {
      "inputs": [
        {
          "internalType": "bytes",
          "name": "data",
          "type": "bytes"
        }
      ],
      "name": "convertData",
      "outputs": [
        {
          "internalType": "address",
          "name": "",
          "type": "address"
        },
        {
          "internalType": "address",
          "name": "",
          "type": "address"
        },
        {
          "internalType": "bytes4",
          "name": "",
          "type": "bytes4"
        }
      ],
      "stateMutability": "pure",
      "type": "function"
    },
    {
      "inputs": [
        {
          "internalType": "bytes",
          "name": "receipent",
          "type": "bytes"
        }
      ],
      "name": "convertReceipentToAddress",
      "outputs": [
        {
          "internalType": "address",
          "name": "",
          "type": "address"
        }
      ],
      "stateMutability": "pure",
      "type": "function"
    },
    {
      "inputs": [
        {
          "internalType": "address",
          "name": "to",
          "type": "address"
        },
        {
          "internalType": "bytes",
          "name": "data",
          "type": "bytes"
        },
        {
          "internalType": "uint64",
          "name": "attestationId",
          "type": "uint64"
        }
      ],
      "name": "execute",
      "outputs": [],
      "stateMutability": "payable",
      "type": "function"
    },
    {
      "inputs": [
        {
          "internalType": "uint8",
          "name": "c",
          "type": "uint8"
        }
      ],
      "name": "fromHexChar",
      "outputs": [
        {
          "internalType": "uint8",
          "name": "",
          "type": "uint8"
        }
      ],
      "stateMutability": "pure",
      "type": "function"
    },
    {
      "inputs": [
        {
          "internalType": "uint64",
          "name": "attestationId",
          "type": "uint64"
        }
      ],
      "name": "getAttestation",
      "outputs": [
        {
          "components": [
            {
              "internalType": "uint64",
              "name": "schemaId",
              "type": "uint64"
            },
            {
              "internalType": "uint64",
              "name": "linkedAttestationId",
              "type": "uint64"
            },
            {
              "internalType": "uint64",
              "name": "attestTimestamp",
              "type": "uint64"
            },
            {
              "internalType": "uint64",
              "name": "revokeTimestamp",
              "type": "uint64"
            },
            {
              "internalType": "address",
              "name": "attester",
              "type": "address"
            },
            {
              "internalType": "uint64",
              "name": "validUntil",
              "type": "uint64"
            },
            {
              "internalType": "enum DataLocation",
              "name": "dataLocation",
              "type": "uint8"
            },
            {
              "internalType": "bool",
              "name": "revoked",
              "type": "bool"
            },
            {
              "internalType": "bytes[]",
              "name": "recipients",
              "type": "bytes[]"
            },
            {
              "internalType": "bytes",
              "name": "data",
              "type": "bytes"
            }
          ],
          "internalType": "struct Attestation",
          "name": "",
          "type": "tuple"
        }
      ],
      "stateMutability": "view",
      "type": "function"
    },
    {
      "inputs": [
        {
          "internalType": "bytes",
          "name": "data",
          "type": "bytes"
        }
      ],
      "name": "getFunctionSigFromData",
      "outputs": [
        {
          "internalType": "bytes4",
          "name": "",
          "type": "bytes4"
        }
      ],
      "stateMutability": "pure",
      "type": "function"
    },
    {
      "inputs": [
        {
          "internalType": "string",
          "name": "s",
          "type": "string"
        }
      ],
      "name": "hexStringToAddress",
      "outputs": [
        {
          "internalType": "bytes",
          "name": "",
          "type": "bytes"
        }
      ],
      "stateMutability": "pure",
      "type": "function"
    },
    {
      "inputs": [
        {
          "internalType": "address",
          "name": "_owner",
          "type": "address"
        },
        {
          "internalType": "address",
          "name": "_signProtocolAddress",
          "type": "address"
        },
        {
          "internalType": "uint64",
          "name": "_schemaId",
          "type": "uint64"
        }
      ],
      "name": "initialize",
      "outputs": [],
      "stateMutability": "nonpayable",
      "type": "function"
    },
    {
      "inputs": [],
      "name": "isInitialized",
      "outputs": [
        {
          "internalType": "bool",
          "name": "",
          "type": "bool"
        }
      ],
      "stateMutability": "view",
      "type": "function"
    },
    {
      "inputs": [],
      "name": "owner",
      "outputs": [
        {
          "internalType": "address",
          "name": "",
          "type": "address"
        }
      ],
      "stateMutability": "view",
      "type": "function"
    },
    {
      "inputs": [],
      "name": "signProtocolAddress",
      "outputs": [
        {
          "internalType": "address",
          "name": "",
          "type": "address"
        }
      ],
      "stateMutability": "view",
      "type": "function"
    },
    {
      "inputs": [
        {
          "internalType": "string",
          "name": "s",
          "type": "string"
        }
      ],
      "name": "toAddress",
      "outputs": [
        {
          "internalType": "address",
          "name": "",
          "type": "address"
        }
      ],
      "stateMutability": "pure",
      "type": "function"
    }
  ],
  "bytecode": "0x608060405234801561001057600080fd5b50612801806100206000396000f3fe6080604052600436106100a75760003560e01c80637879ec31116100645780637879ec31146101e75780637e4115ba146102105780638da5cb5b1461024d578063a42cfc0b14610278578063af66c560146102a3578063b2a7b72a146102e2576100a7565b80632ecb20d3146100ac5780632f387514146100e9578063392e53cd146101265780635b2d19c214610151578063622528801461016d57806362ef448c146101aa575b600080fd5b3480156100b857600080fd5b506100d360048036038101906100ce9190611166565b61031f565b6040516100e091906111a2565b60405180910390f35b3480156100f557600080fd5b50610110600480360381019061010b9190611303565b61068e565b60405161011d91906113cb565b60405180910390f35b34801561013257600080fd5b5061013b610812565b6040516101489190611408565b60405180910390f35b61016b60048036038101906101669190611521565b610825565b005b34801561017957600080fd5b50610194600480360381019061018f9190611595565b610cfc565b6040516101a19190611853565b60405180910390f35b3480156101b657600080fd5b506101d160048036038101906101cc9190611916565b610dfc565b6040516101de919061196e565b60405180910390f35b3480156101f357600080fd5b5061020e60048036038101906102099190611989565b610e21565b005b34801561021c57600080fd5b5061023760048036038101906102329190611303565b610f3a565b604051610244919061196e565b60405180910390f35b34801561025957600080fd5b50610262610fb2565b60405161026f919061196e565b60405180910390f35b34801561028457600080fd5b5061028d610fd6565b60405161029a919061196e565b60405180910390f35b3480156102af57600080fd5b506102ca60048036038101906102c59190611916565b610ffc565b6040516102d993929190611a17565b60405180910390f35b3480156102ee57600080fd5b5061030960048036038101906103049190611a4e565b611041565b6040516103169190611a9b565b60405180910390f35b60007f30000000000000000000000000000000000000000000000000000000000000007effffffffffffffffffffffffffffffffffffffffffffffffffffffffffffff19168260f81b7effffffffffffffffffffffffffffffffffffffffffffffffffffffffffffff1916101580156103ff57507f39000000000000000000000000000000000000000000000000000000000000007effffffffffffffffffffffffffffffffffffffffffffffffffffffffffffff19168260f81b7effffffffffffffffffffffffffffffffffffffffffffffffffffffffffffff191611155b1561043a577f300000000000000000000000000000000000000000000000000000000000000060f81c826104339190611ae5565b9050610689565b7f61000000000000000000000000000000000000000000000000000000000000007effffffffffffffffffffffffffffffffffffffffffffffffffffffffffffff19168260f81b7effffffffffffffffffffffffffffffffffffffffffffffffffffffffffffff19161015801561051857507f66000000000000000000000000000000000000000000000000000000000000007effffffffffffffffffffffffffffffffffffffffffffffffffffffffffffff19168260f81b7effffffffffffffffffffffffffffffffffffffffffffffffffffffffffffff191611155b1561055f577f610000000000000000000000000000000000000000000000000000000000000060f81c82600a61054e9190611b1a565b6105589190611ae5565b9050610689565b7f41000000000000000000000000000000000000000000000000000000000000007effffffffffffffffffffffffffffffffffffffffffffffffffffffffffffff19168260f81b7effffffffffffffffffffffffffffffffffffffffffffffffffffffffffffff19161015801561063d57507f46000000000000000000000000000000000000000000000000000000000000007effffffffffffffffffffffffffffffffffffffffffffffffffffffffffffff19168260f81b7effffffffffffffffffffffffffffffffffffffffffffffffffffffffffffff191611155b15610684577f410000000000000000000000000000000000000000000000000000000000000060f81c82600a6106739190611b1a565b61067d9190611ae5565b9050610689565b600090505b919050565b606060008290506000600282516106a59190611b88565b146106af57600080fd5b6000600282516106bf9190611bb9565b67ffffffffffffffff8111156106d8576106d76111d8565b5b6040519080825280601f01601f19166020018201604052801561070a5781602001600182028036833780820191505090505b50905060005b6002835161071e9190611bb9565b811015610807576107668360018360026107389190611bea565b6107429190611c2c565b8151811061075357610752611c60565b5b602001015160f81c60f81b60f81c61031f565b601061079d858460026107799190611bea565b8151811061078a57610789611c60565b5b602001015160f81c60f81b60f81c61031f565b6107a79190611c8f565b6107b19190611b1a565b60f81b8282815181106107c7576107c6611c60565b5b60200101907effffffffffffffffffffffffffffffffffffffffffffffffffffffffffffff1916908160001a9053508061080090611ccc565b9050610710565b508092505050919050565b6001601c9054906101000a900460ff1681565b6000600160009054906101000a900473ffffffffffffffffffffffffffffffffffffffff1673ffffffffffffffffffffffffffffffffffffffff166362252880836040518263ffffffff1660e01b81526004016108829190611d23565b600060405180830381865afa15801561089f573d6000803e3d6000fd5b505050506040513d6000823e3d601f19601f820116820180604052508101906108c89190612042565b905060008054906101000a900473ffffffffffffffffffffffffffffffffffffffff1673ffffffffffffffffffffffffffffffffffffffff16816080015173ffffffffffffffffffffffffffffffffffffffff161461095c576040517f08c379a0000000000000000000000000000000000000000000000000000000008152600401610953906120e8565b60405180910390fd5b600160149054906101000a900467ffffffffffffffff1667ffffffffffffffff16816000015167ffffffffffffffff16146109cc576040517f08c379a00000000000000000000000000000000000000000000000000000000081526004016109c390612154565b60405180910390fd5b428160a0015167ffffffffffffffff1610610a1c576040517f08c379a0000000000000000000000000000000000000000000000000000000008152600401610a13906121c0565b60405180910390fd5b8060e0015115610a61576040517f08c379a0000000000000000000000000000000000000000000000000000000008152600401610a589061222c565b60405180910390fd5b6000805b82610100015151811015610ae9573373ffffffffffffffffffffffffffffffffffffffff16610ab28461010001518381518110610aa557610aa4611c60565b5b6020026020010151610dfc565b73ffffffffffffffffffffffffffffffffffffffff1603610ad65760019150610ae9565b8080610ae190611ccc565b915050610a65565b5080610b2a576040517f08c379a0000000000000000000000000000000000000000000000000000000008152600401610b2190612298565b60405180910390fd5b6000806000610b3d856101200151610ffc565b9250925092503073ffffffffffffffffffffffffffffffffffffffff168373ffffffffffffffffffffffffffffffffffffffff1614610bb1576040517f08c379a0000000000000000000000000000000000000000000000000000000008152600401610ba890612304565b60405180910390fd5b6000610bbd8989611041565b9050807bffffffffffffffffffffffffffffffffffffffffffffffffffffffff1916827bffffffffffffffffffffffffffffffffffffffffffffffffffffffff191614610c3f576040517f08c379a0000000000000000000000000000000000000000000000000000000008152600401610c3690612370565b60405180910390fd5b60008a73ffffffffffffffffffffffffffffffffffffffff16348b8b604051610c699291906123c0565b60006040518083038185875af1925050503d8060008114610ca6576040519150601f19603f3d011682016040523d82523d6000602084013e610cab565b606091505b5050905080610cef576040517f08c379a0000000000000000000000000000000000000000000000000000000008152600401610ce690612425565b60405180910390fd5b5050505050505050505050565b610d0461106a565b6000600160009054906101000a900473ffffffffffffffffffffffffffffffffffffffff1673ffffffffffffffffffffffffffffffffffffffff166362252880846040518263ffffffff1660e01b8152600401610d619190611d23565b600060405180830381865afa158015610d7e573d6000803e3d6000fd5b505050506040513d6000823e3d601f19601f82011682018060405250810190610da79190612042565b90506000610dd4826101000151600081518110610dc757610dc6611c60565b5b6020026020010151610dfc565b90506000806000610de9856101200151610ffc565b9250925092508495505050505050919050565b6000610e1a82806020019051810190610e1591906124b5565b610f3a565b9050919050565b6001601c9054906101000a900460ff1615610e71576040517f08c379a0000000000000000000000000000000000000000000000000000000008152600401610e689061254a565b60405180910390fd5b600180601c6101000a81548160ff021916908315150217905550826000806101000a81548173ffffffffffffffffffffffffffffffffffffffff021916908373ffffffffffffffffffffffffffffffffffffffff16021790555081600160006101000a81548173ffffffffffffffffffffffffffffffffffffffff021916908373ffffffffffffffffffffffffffffffffffffffff16021790555080600160146101000a81548167ffffffffffffffff021916908367ffffffffffffffff160217905550505050565b600080610f468361068e565b9050601581511015610f8d576040517f08c379a0000000000000000000000000000000000000000000000000000000008152600401610f84906125b6565b60405180910390fd5b60006c0100000000000000000000000060016020840101510490508092505050919050565b60008054906101000a900473ffffffffffffffffffffffffffffffffffffffff1681565b600160009054906101000a900473ffffffffffffffffffffffffffffffffffffffff1681565b600080600080600080868060200190518101906110199190612614565b92509250925060008161102b906126b5565b9050838382965096509650505050509193909250565b6000828260009060049261105793929190612726565b90611062919061276c565b905092915050565b604051806101400160405280600067ffffffffffffffff168152602001600067ffffffffffffffff168152602001600067ffffffffffffffff168152602001600067ffffffffffffffff168152602001600073ffffffffffffffffffffffffffffffffffffffff168152602001600067ffffffffffffffff168152602001600060038111156110fc576110fb6115e0565b5b815260200160001515815260200160608152602001606081525090565b6000604051905090565b600080fd5b600080fd5b600060ff82169050919050565b6111438161112d565b811461114e57600080fd5b50565b6000813590506111608161113a565b92915050565b60006020828403121561117c5761117b611123565b5b600061118a84828501611151565b91505092915050565b61119c8161112d565b82525050565b60006020820190506111b76000830184611193565b92915050565b600080fd5b600080fd5b6000601f19601f8301169050919050565b7f4e487b7100000000000000000000000000000000000000000000000000000000600052604160045260246000fd5b611210826111c7565b810181811067ffffffffffffffff8211171561122f5761122e6111d8565b5b80604052505050565b6000611242611119565b905061124e8282611207565b919050565b600067ffffffffffffffff82111561126e5761126d6111d8565b5b611277826111c7565b9050602081019050919050565b82818337600083830152505050565b60006112a66112a184611253565b611238565b9050828152602081018484840111156112c2576112c16111c2565b5b6112cd848285611284565b509392505050565b600082601f8301126112ea576112e96111bd565b5b81356112fa848260208601611293565b91505092915050565b60006020828403121561131957611318611123565b5b600082013567ffffffffffffffff81111561133757611336611128565b5b611343848285016112d5565b91505092915050565b600081519050919050565b600082825260208201905092915050565b60005b8381101561138657808201518184015260208101905061136b565b60008484015250505050565b600061139d8261134c565b6113a78185611357565b93506113b7818560208601611368565b6113c0816111c7565b840191505092915050565b600060208201905081810360008301526113e58184611392565b905092915050565b60008115159050919050565b611402816113ed565b82525050565b600060208201905061141d60008301846113f9565b92915050565b600073ffffffffffffffffffffffffffffffffffffffff82169050919050565b600061144e82611423565b9050919050565b61145e81611443565b811461146957600080fd5b50565b60008135905061147b81611455565b92915050565b600080fd5b600080fd5b60008083601f8401126114a1576114a06111bd565b5b8235905067ffffffffffffffff8111156114be576114bd611481565b5b6020830191508360018202830111156114da576114d9611486565b5b9250929050565b600067ffffffffffffffff82169050919050565b6114fe816114e1565b811461150957600080fd5b50565b60008135905061151b816114f5565b92915050565b6000806000806060858703121561153b5761153a611123565b5b60006115498782880161146c565b945050602085013567ffffffffffffffff81111561156a57611569611128565b5b6115768782880161148b565b935093505060406115898782880161150c565b91505092959194509250565b6000602082840312156115ab576115aa611123565b5b60006115b98482850161150c565b91505092915050565b6115cb816114e1565b82525050565b6115da81611443565b82525050565b7f4e487b7100000000000000000000000000000000000000000000000000000000600052602160045260246000fd5b600481106116205761161f6115e0565b5b50565b60008190506116318261160f565b919050565b600061164182611623565b9050919050565b61165181611636565b82525050565b611660816113ed565b82525050565b600081519050919050565b600082825260208201905092915050565b6000819050602082019050919050565b600082825260208201905092915050565b60006116ae8261134c565b6116b88185611692565b93506116c8818560208601611368565b6116d1816111c7565b840191505092915050565b60006116e883836116a3565b905092915050565b6000602082019050919050565b600061170882611666565b6117128185611671565b93508360208202850161172485611682565b8060005b85811015611760578484038952815161174185826116dc565b945061174c836116f0565b925060208a01995050600181019050611728565b50829750879550505050505092915050565b60006101408301600083015161178b60008601826115c2565b50602083015161179e60208601826115c2565b5060408301516117b160408601826115c2565b5060608301516117c460608601826115c2565b5060808301516117d760808601826115d1565b5060a08301516117ea60a08601826115c2565b5060c08301516117fd60c0860182611648565b5060e083015161181060e0860182611657565b5061010083015184820361010086015261182a82826116fd565b91505061012083015184820361012086015261184682826116a3565b9150508091505092915050565b6000602082019050818103600083015261186d8184611772565b905092915050565b600067ffffffffffffffff8211156118905761188f6111d8565b5b611899826111c7565b9050602081019050919050565b60006118b96118b484611875565b611238565b9050828152602081018484840111156118d5576118d46111c2565b5b6118e0848285611284565b509392505050565b600082601f8301126118fd576118fc6111bd565b5b813561190d8482602086016118a6565b91505092915050565b60006020828403121561192c5761192b611123565b5b600082013567ffffffffffffffff81111561194a57611949611128565b5b611956848285016118e8565b91505092915050565b61196881611443565b82525050565b6000602082019050611983600083018461195f565b92915050565b6000806000606084860312156119a2576119a1611123565b5b60006119b08682870161146c565b93505060206119c18682870161146c565b92505060406119d28682870161150c565b9150509250925092565b60007fffffffff0000000000000000000000000000000000000000000000000000000082169050919050565b611a11816119dc565b82525050565b6000606082019050611a2c600083018661195f565b611a39602083018561195f565b611a466040830184611a08565b949350505050565b60008060208385031215611a6557611a64611123565b5b600083013567ffffffffffffffff811115611a8357611a82611128565b5b611a8f8582860161148b565b92509250509250929050565b6000602082019050611ab06000830184611a08565b92915050565b7f4e487b7100000000000000000000000000000000000000000000000000000000600052601160045260246000fd5b6000611af08261112d565b9150611afb8361112d565b9250828203905060ff811115611b1457611b13611ab6565b5b92915050565b6000611b258261112d565b9150611b308361112d565b9250828201905060ff811115611b4957611b48611ab6565b5b92915050565b6000819050919050565b7f4e487b7100000000000000000000000000000000000000000000000000000000600052601260045260246000fd5b6000611b9382611b4f565b9150611b9e83611b4f565b925082611bae57611bad611b59565b5b828206905092915050565b6000611bc482611b4f565b9150611bcf83611b4f565b925082611bdf57611bde611b59565b5b828204905092915050565b6000611bf582611b4f565b9150611c0083611b4f565b9250828202611c0e81611b4f565b91508282048414831517611c2557611c24611ab6565b5b5092915050565b6000611c3782611b4f565b9150611c4283611b4f565b9250828201905080821115611c5a57611c59611ab6565b5b92915050565b7f4e487b7100000000000000000000000000000000000000000000000000000000600052603260045260246000fd5b6000611c9a8261112d565b9150611ca58361112d565b9250828202611cb38161112d565b9150808214611cc557611cc4611ab6565b5b5092915050565b6000611cd782611b4f565b91507fffffffffffffffffffffffffffffffffffffffffffffffffffffffffffffffff8203611d0957611d08611ab6565b5b600182019050919050565b611d1d816114e1565b82525050565b6000602082019050611d386000830184611d14565b92915050565b600080fd5b600080fd5b600081519050611d57816114f5565b92915050565b600081519050611d6c81611455565b92915050565b60048110611d7f57600080fd5b50565b600081519050611d9181611d72565b92915050565b611da0816113ed565b8114611dab57600080fd5b50565b600081519050611dbd81611d97565b92915050565b600067ffffffffffffffff821115611dde57611ddd6111d8565b5b602082029050602081019050919050565b6000611e02611dfd84611875565b611238565b905082815260208101848484011115611e1e57611e1d6111c2565b5b611e29848285611368565b509392505050565b600082601f830112611e4657611e456111bd565b5b8151611e56848260208601611def565b91505092915050565b6000611e72611e6d84611dc3565b611238565b90508083825260208201905060208402830185811115611e9557611e94611486565b5b835b81811015611edc57805167ffffffffffffffff811115611eba57611eb96111bd565b5b808601611ec78982611e31565b85526020850194505050602081019050611e97565b5050509392505050565b600082601f830112611efb57611efa6111bd565b5b8151611f0b848260208601611e5f565b91505092915050565b60006101408284031215611f2b57611f2a611d3e565b5b611f36610140611238565b90506000611f4684828501611d48565b6000830152506020611f5a84828501611d48565b6020830152506040611f6e84828501611d48565b6040830152506060611f8284828501611d48565b6060830152506080611f9684828501611d5d565b60808301525060a0611faa84828501611d48565b60a08301525060c0611fbe84828501611d82565b60c08301525060e0611fd284828501611dae565b60e08301525061010082015167ffffffffffffffff811115611ff757611ff6611d43565b5b61200384828501611ee6565b6101008301525061012082015167ffffffffffffffff81111561202957612028611d43565b5b61203584828501611e31565b6101208301525092915050565b60006020828403121561205857612057611123565b5b600082015167ffffffffffffffff81111561207657612075611128565b5b61208284828501611f14565b91505092915050565b600082825260208201905092915050565b7f4174746573746174696f6e206e6f742066726f6d206f776e6572000000000000600082015250565b60006120d2601a8361208b565b91506120dd8261209c565b602082019050919050565b60006020820190508181036000830152612101816120c5565b9050919050565b7f536368656d61204944206d69736d617463680000000000000000000000000000600082015250565b600061213e60128361208b565b915061214982612108565b602082019050919050565b6000602082019050818103600083015261216d81612131565b9050919050565b7f4174746573746174696f6e206578706972656400000000000000000000000000600082015250565b60006121aa60138361208b565b91506121b582612174565b602082019050919050565b600060208201905081810360008301526121d98161219d565b9050919050565b7f4174746573746174696f6e207265766f6b656400000000000000000000000000600082015250565b600061221660138361208b565b9150612221826121e0565b602082019050919050565b6000602082019050818103600083015261224581612209565b9050919050565b7f4e6f74206120726563697069656e74206f66206174746573746174696f6e0000600082015250565b6000612282601e8361208b565b915061228d8261224c565b602082019050919050565b600060208201905081810360008301526122b181612275565b9050919050565b7f57616c6c65742061646472657373206d69736d61746368000000000000000000600082015250565b60006122ee60178361208b565b91506122f9826122b8565b602082019050919050565b6000602082019050818103600083015261231d816122e1565b9050919050565b7f46756e6374696f6e207369676e6174757265206d69736d617463680000000000600082015250565b600061235a601b8361208b565b915061236582612324565b602082019050919050565b600060208201905081810360008301526123898161234d565b9050919050565b600081905092915050565b60006123a78385612390565b93506123b4838584611284565b82840190509392505050565b60006123cd82848661239b565b91508190509392505050565b7f5472616e73616374696f6e206661696c65640000000000000000000000000000600082015250565b600061240f60128361208b565b915061241a826123d9565b602082019050919050565b6000602082019050818103600083015261243e81612402565b9050919050565b600061245861245384611253565b611238565b905082815260208101848484011115612474576124736111c2565b5b61247f848285611368565b509392505050565b600082601f83011261249c5761249b6111bd565b5b81516124ac848260208601612445565b91505092915050565b6000602082840312156124cb576124ca611123565b5b600082015167ffffffffffffffff8111156124e9576124e8611128565b5b6124f584828501612487565b91505092915050565b7f416c726561647920696e697469616c697a656400000000000000000000000000600082015250565b600061253460138361208b565b915061253f826124fe565b602082019050919050565b6000602082019050818103600083015261256381612527565b9050919050565b7f746f416464726573735f6f75744f66426f756e64730000000000000000000000600082015250565b60006125a060158361208b565b91506125ab8261256a565b602082019050919050565b600060208201905081810360008301526125cf81612593565b9050919050565b60006125e182611423565b9050919050565b6125f1816125d6565b81146125fc57600080fd5b50565b60008151905061260e816125e8565b92915050565b60008060006060848603121561262d5761262c611123565b5b600061263b868287016125ff565b935050602061264c868287016125ff565b925050604084015167ffffffffffffffff81111561266d5761266c611128565b5b61267986828701611e31565b9150509250925092565b6000819050602082019050919050565b600061269f82516119dc565b80915050919050565b600082821b905092915050565b60006126c08261134c565b826126ca84612683565b90506126d581612693565b92506004821015612715576127107fffffffff00000000000000000000000000000000000000000000000000000000836004036008026126a8565b831692505b5050919050565b600080fd5b600080fd5b6000808585111561273a5761273961271c565b5b8386111561274b5761274a612721565b5b6001850283019150848603905094509492505050565b600082905092915050565b60006127788383612761565b8261278381356119dc565b925060048210156127c3576127be7fffffffff00000000000000000000000000000000000000000000000000000000836004036008026126a8565b831692505b50509291505056fea2646970667358221220e4f7c4e34979324e1ea5c271b00206cc8b66b31f110735a41de9d89ab7a39c7564736f6c63430008130033",
  "linkReferences": {},
  "deployedLinkReferences": {}
}