{
  "_format": "hh-sol-artifact-1",
  "contractName": "Sample",
  "sourceName": "contracts/Sample.sol",
  "abi": [
    {
      "anonymous": false,
      "inputs": [],
      "name": "Executed",
      "type": "event"
    },
    {
      "inputs": [],
      "name": "execute",
      "outputs": [],
      "stateMutability": "nonpayable",
      "type": "function"
    },
    {
      "inputs": [],
      "name": "getFunctionSig",
      "outputs": [
        {
          "internalType": "bytes4",
          "name": "",
          "type": "bytes4"
        }
      ],
      "stateMutability": "pure",
      "type": "function"
    }
  ],
  "bytecode": "0x608060405234801561001057600080fd5b5061011e806100206000396000f3fe6080604052348015600f57600080fd5b506004361060325760003560e01c8063614619541460375780637f47a1c214603f575b600080fd5b603d6059565b005b60456087565b6040516050919060cf565b60405180910390f35b7f68f46c45a243a0e9065a97649faf9a5afe1692f2679e650c2f853b9cd734cc0e60405160405180910390a1565b6000636146195460e01b905090565b60007fffffffff0000000000000000000000000000000000000000000000000000000082169050919050565b60c9816096565b82525050565b600060208201905060e2600083018460c2565b9291505056fea26469706673582212205e999400bb7e672489568a20b4e8bc05f1d9e418c84fc7ac0a5288d3054c188464736f6c63430008130033",
  "linkReferences": {},
  "deployedLinkReferences": {}
}